{
  "contractName": "Terran721",
  "abi": [
    {
      "inputs": [
        {
          "internalType": "string",
          "name": "name",
          "type": "string"
        },
        {
          "internalType": "string",
          "name": "symbol",
          "type": "string"
        },
        {
          "internalType": "string",
          "name": "baseTokenURI",
          "type": "string"
        }
      ],
      "stateMutability": "nonpayable",
      "type": "constructor"
    },
    {
      "anonymous": false,
      "inputs": [
        {
          "indexed": true,
          "internalType": "address",
          "name": "owner",
          "type": "address"
        },
        {
          "indexed": true,
          "internalType": "address",
          "name": "approved",
          "type": "address"
        },
        {
          "indexed": true,
          "internalType": "uint256",
          "name": "tokenId",
          "type": "uint256"
        }
      ],
      "name": "Approval",
      "type": "event"
    },
    {
      "anonymous": false,
      "inputs": [
        {
          "indexed": true,
          "internalType": "address",
          "name": "owner",
          "type": "address"
        },
        {
          "indexed": true,
          "internalType": "address",
          "name": "operator",
          "type": "address"
        },
        {
          "indexed": false,
          "internalType": "bool",
          "name": "approved",
          "type": "bool"
        }
      ],
      "name": "ApprovalForAll",
      "type": "event"
    },
    {
      "anonymous": false,
      "inputs": [
        {
          "indexed": false,
          "internalType": "address",
          "name": "account",
          "type": "address"
        }
      ],
      "name": "Paused",
      "type": "event"
    },
    {
      "anonymous": false,
      "inputs": [
        {
          "indexed": true,
          "internalType": "bytes32",
          "name": "role",
          "type": "bytes32"
        },
        {
          "indexed": true,
          "internalType": "bytes32",
          "name": "previousAdminRole",
          "type": "bytes32"
        },
        {
          "indexed": true,
          "internalType": "bytes32",
          "name": "newAdminRole",
          "type": "bytes32"
        }
      ],
      "name": "RoleAdminChanged",
      "type": "event"
    },
    {
      "anonymous": false,
      "inputs": [
        {
          "indexed": true,
          "internalType": "bytes32",
          "name": "role",
          "type": "bytes32"
        },
        {
          "indexed": true,
          "internalType": "address",
          "name": "account",
          "type": "address"
        },
        {
          "indexed": true,
          "internalType": "address",
          "name": "sender",
          "type": "address"
        }
      ],
      "name": "RoleGranted",
      "type": "event"
    },
    {
      "anonymous": false,
      "inputs": [
        {
          "indexed": true,
          "internalType": "bytes32",
          "name": "role",
          "type": "bytes32"
        },
        {
          "indexed": true,
          "internalType": "address",
          "name": "account",
          "type": "address"
        },
        {
          "indexed": true,
          "internalType": "address",
          "name": "sender",
          "type": "address"
        }
      ],
      "name": "RoleRevoked",
      "type": "event"
    },
    {
      "anonymous": false,
      "inputs": [
        {
          "indexed": true,
          "internalType": "address",
          "name": "from",
          "type": "address"
        },
        {
          "indexed": true,
          "internalType": "address",
          "name": "to",
          "type": "address"
        },
        {
          "indexed": true,
          "internalType": "uint256",
          "name": "tokenId",
          "type": "uint256"
        }
      ],
      "name": "Transfer",
      "type": "event"
    },
    {
      "anonymous": false,
      "inputs": [
        {
          "indexed": false,
          "internalType": "address",
          "name": "account",
          "type": "address"
        }
      ],
      "name": "Unpaused",
      "type": "event"
    },
    {
      "inputs": [],
      "name": "DEFAULT_ADMIN_ROLE",
      "outputs": [
        {
          "internalType": "bytes32",
          "name": "",
          "type": "bytes32"
        }
      ],
      "stateMutability": "view",
      "type": "function",
      "constant": true
    },
    {
      "inputs": [],
      "name": "MINTER_ROLE",
      "outputs": [
        {
          "internalType": "bytes32",
          "name": "",
          "type": "bytes32"
        }
      ],
      "stateMutability": "view",
      "type": "function",
      "constant": true
    },
    {
      "inputs": [],
      "name": "OWNER_ROLE",
      "outputs": [
        {
          "internalType": "bytes32",
          "name": "",
          "type": "bytes32"
        }
      ],
      "stateMutability": "view",
      "type": "function",
      "constant": true
    },
    {
      "inputs": [],
      "name": "PAUSER_ROLE",
      "outputs": [
        {
          "internalType": "bytes32",
          "name": "",
          "type": "bytes32"
        }
      ],
      "stateMutability": "view",
      "type": "function",
      "constant": true
    },
    {
      "inputs": [],
      "name": "_baseTokenURI",
      "outputs": [
        {
          "internalType": "string",
          "name": "",
          "type": "string"
        }
      ],
      "stateMutability": "view",
      "type": "function",
      "constant": true
    },
    {
      "inputs": [
        {
          "internalType": "address",
          "name": "to",
          "type": "address"
        },
        {
          "internalType": "uint256",
          "name": "tokenId",
          "type": "uint256"
        }
      ],
      "name": "approve",
      "outputs": [],
      "stateMutability": "nonpayable",
      "type": "function"
    },
    {
      "inputs": [
        {
          "internalType": "address",
          "name": "owner",
          "type": "address"
        }
      ],
      "name": "balanceOf",
      "outputs": [
        {
          "internalType": "uint256",
          "name": "",
          "type": "uint256"
        }
      ],
      "stateMutability": "view",
      "type": "function",
      "constant": true
    },
    {
      "inputs": [
        {
          "internalType": "uint256",
          "name": "tokenId",
          "type": "uint256"
        }
      ],
      "name": "burn",
      "outputs": [],
      "stateMutability": "nonpayable",
      "type": "function"
    },
    {
      "inputs": [
        {
          "internalType": "uint256",
          "name": "tokenId",
          "type": "uint256"
        }
      ],
      "name": "getApproved",
      "outputs": [
        {
          "internalType": "address",
          "name": "",
          "type": "address"
        }
      ],
      "stateMutability": "view",
      "type": "function",
      "constant": true
    },
    {
      "inputs": [
        {
          "internalType": "bytes32",
          "name": "role",
          "type": "bytes32"
        }
      ],
      "name": "getRoleAdmin",
      "outputs": [
        {
          "internalType": "bytes32",
          "name": "",
          "type": "bytes32"
        }
      ],
      "stateMutability": "view",
      "type": "function",
      "constant": true
    },
    {
      "inputs": [
        {
          "internalType": "bytes32",
          "name": "role",
          "type": "bytes32"
        },
        {
          "internalType": "uint256",
          "name": "index",
          "type": "uint256"
        }
      ],
      "name": "getRoleMember",
      "outputs": [
        {
          "internalType": "address",
          "name": "",
          "type": "address"
        }
      ],
      "stateMutability": "view",
      "type": "function",
      "constant": true
    },
    {
      "inputs": [
        {
          "internalType": "bytes32",
          "name": "role",
          "type": "bytes32"
        }
      ],
      "name": "getRoleMemberCount",
      "outputs": [
        {
          "internalType": "uint256",
          "name": "",
          "type": "uint256"
        }
      ],
      "stateMutability": "view",
      "type": "function",
      "constant": true
    },
    {
      "inputs": [
        {
          "internalType": "bytes32",
          "name": "role",
          "type": "bytes32"
        },
        {
          "internalType": "address",
          "name": "account",
          "type": "address"
        }
      ],
      "name": "grantRole",
      "outputs": [],
      "stateMutability": "nonpayable",
      "type": "function"
    },
    {
      "inputs": [
        {
          "internalType": "bytes32",
          "name": "role",
          "type": "bytes32"
        },
        {
          "internalType": "address",
          "name": "account",
          "type": "address"
        }
      ],
      "name": "hasRole",
      "outputs": [
        {
          "internalType": "bool",
          "name": "",
          "type": "bool"
        }
      ],
      "stateMutability": "view",
      "type": "function",
      "constant": true
    },
    {
      "inputs": [
        {
          "internalType": "address",
          "name": "owner",
          "type": "address"
        },
        {
          "internalType": "address",
          "name": "operator",
          "type": "address"
        }
      ],
      "name": "isApprovedForAll",
      "outputs": [
        {
          "internalType": "bool",
          "name": "",
          "type": "bool"
        }
      ],
      "stateMutability": "view",
      "type": "function",
      "constant": true
    },
    {
      "inputs": [],
      "name": "name",
      "outputs": [
        {
          "internalType": "string",
          "name": "",
          "type": "string"
        }
      ],
      "stateMutability": "view",
      "type": "function",
      "constant": true
    },
    {
      "inputs": [
        {
          "internalType": "uint256",
          "name": "tokenId",
          "type": "uint256"
        }
      ],
      "name": "ownerOf",
      "outputs": [
        {
          "internalType": "address",
          "name": "",
          "type": "address"
        }
      ],
      "stateMutability": "view",
      "type": "function",
      "constant": true
    },
    {
      "inputs": [],
      "name": "paused",
      "outputs": [
        {
          "internalType": "bool",
          "name": "",
          "type": "bool"
        }
      ],
      "stateMutability": "view",
      "type": "function",
      "constant": true
    },
    {
      "inputs": [
        {
          "internalType": "bytes32",
          "name": "role",
          "type": "bytes32"
        },
        {
          "internalType": "address",
          "name": "account",
          "type": "address"
        }
      ],
      "name": "renounceRole",
      "outputs": [],
      "stateMutability": "nonpayable",
      "type": "function"
    },
    {
      "inputs": [
        {
          "internalType": "bytes32",
          "name": "role",
          "type": "bytes32"
        },
        {
          "internalType": "address",
          "name": "account",
          "type": "address"
        }
      ],
      "name": "revokeRole",
      "outputs": [],
      "stateMutability": "nonpayable",
      "type": "function"
    },
    {
      "inputs": [
        {
          "internalType": "address",
          "name": "from",
          "type": "address"
        },
        {
          "internalType": "address",
          "name": "to",
          "type": "address"
        },
        {
          "internalType": "uint256",
          "name": "tokenId",
          "type": "uint256"
        }
      ],
      "name": "safeTransferFrom",
      "outputs": [],
      "stateMutability": "nonpayable",
      "type": "function"
    },
    {
      "inputs": [
        {
          "internalType": "address",
          "name": "from",
          "type": "address"
        },
        {
          "internalType": "address",
          "name": "to",
          "type": "address"
        },
        {
          "internalType": "uint256",
          "name": "tokenId",
          "type": "uint256"
        },
        {
          "internalType": "bytes",
          "name": "_data",
          "type": "bytes"
        }
      ],
      "name": "safeTransferFrom",
      "outputs": [],
      "stateMutability": "nonpayable",
      "type": "function"
    },
    {
      "inputs": [
        {
          "internalType": "address",
          "name": "operator",
          "type": "address"
        },
        {
          "internalType": "bool",
          "name": "approved",
          "type": "bool"
        }
      ],
      "name": "setApprovalForAll",
      "outputs": [],
      "stateMutability": "nonpayable",
      "type": "function"
    },
    {
      "inputs": [],
      "name": "symbol",
      "outputs": [
        {
          "internalType": "string",
          "name": "",
          "type": "string"
        }
      ],
      "stateMutability": "view",
      "type": "function",
      "constant": true
    },
    {
      "inputs": [
        {
          "internalType": "uint256",
          "name": "index",
          "type": "uint256"
        }
      ],
      "name": "tokenByIndex",
      "outputs": [
        {
          "internalType": "uint256",
          "name": "",
          "type": "uint256"
        }
      ],
      "stateMutability": "view",
      "type": "function",
      "constant": true
    },
    {
      "inputs": [
        {
          "internalType": "address",
          "name": "owner",
          "type": "address"
        },
        {
          "internalType": "uint256",
          "name": "index",
          "type": "uint256"
        }
      ],
      "name": "tokenOfOwnerByIndex",
      "outputs": [
        {
          "internalType": "uint256",
          "name": "",
          "type": "uint256"
        }
      ],
      "stateMutability": "view",
      "type": "function",
      "constant": true
    },
    {
      "inputs": [
        {
          "internalType": "uint256",
          "name": "tokenId",
          "type": "uint256"
        }
      ],
      "name": "tokenURI",
      "outputs": [
        {
          "internalType": "string",
          "name": "",
          "type": "string"
        }
      ],
      "stateMutability": "view",
      "type": "function",
      "constant": true
    },
    {
      "inputs": [],
      "name": "totalSupply",
      "outputs": [
        {
          "internalType": "uint256",
          "name": "",
          "type": "uint256"
        }
      ],
      "stateMutability": "view",
      "type": "function",
      "constant": true
    },
    {
      "inputs": [
        {
          "internalType": "address",
          "name": "from",
          "type": "address"
        },
        {
          "internalType": "address",
          "name": "to",
          "type": "address"
        },
        {
          "internalType": "uint256",
          "name": "tokenId",
          "type": "uint256"
        }
      ],
      "name": "transferFrom",
      "outputs": [],
      "stateMutability": "nonpayable",
      "type": "function"
    },
    {
      "inputs": [],
      "name": "mint",
      "outputs": [],
      "stateMutability": "nonpayable",
      "type": "function"
    },
    {
      "inputs": [],
      "name": "pause",
      "outputs": [],
      "stateMutability": "nonpayable",
      "type": "function"
    },
    {
      "inputs": [],
      "name": "unpause",
      "outputs": [],
      "stateMutability": "nonpayable",
      "type": "function"
    },
    {
      "inputs": [
        {
          "internalType": "bytes4",
          "name": "interfaceId",
          "type": "bytes4"
        }
      ],
      "name": "supportsInterface",
      "outputs": [
        {
          "internalType": "bool",
          "name": "",
          "type": "bool"
        }
      ],
      "stateMutability": "view",
      "type": "function",
      "constant": true
    },
    {
      "inputs": [
        {
          "internalType": "address",
          "name": "_dao",
          "type": "address"
        }
      ],
      "name": "setPausePermission",
      "outputs": [],
      "stateMutability": "nonpayable",
      "type": "function"
    }
  ],
  "bytecode": "0x60806040523480156200001157600080fd5b506040516200534038038062005340833981810160405281019062000037919062000674565b828281600290805190602001906200005192919062000427565b5080600390805190602001906200006a92919062000427565b5050506000600c60006101000a81548160ff02191690831515021790555080600e9080519060200190620000a092919062000427565b50620000c56000801b620000b96200019160201b60201c565b6200019960201b60201c565b620001067fb19546dff01e856fb3f010c267a7b1c60363cf8a4664e21cc89c26224620214e620000fa6200019160201b60201c565b6200019960201b60201c565b620001477f9f2df0fed2c77648de5860a4cc508cd0818c85b8b8a1ab4ceeef8d981c8956a66200013b6200019160201b60201c565b6200019960201b60201c565b620001887f65d7a28e3265b37a6474929f336521b332c1681b933f6cb9f3376673440d862a6200017c6200019160201b60201c565b6200019960201b60201c565b50505062000792565b600033905090565b620001ab8282620001af60201b60201c565b5050565b620001c68282620001f760201b620013811760201c565b620001f28160016000858152602001908152602001600020620002e860201b620014611790919060201c565b505050565b6200020982826200032060201b60201c565b620002e457600160008084815260200190815260200160002060000160008373ffffffffffffffffffffffffffffffffffffffff1673ffffffffffffffffffffffffffffffffffffffff16815260200190815260200160002060006101000a81548160ff021916908315150217905550620002896200019160201b60201c565b73ffffffffffffffffffffffffffffffffffffffff168173ffffffffffffffffffffffffffffffffffffffff16837f2f8788117e7eff1d82e926ec794901d17c78024a50270940304540a733656f0d60405160405180910390a45b5050565b600062000318836000018373ffffffffffffffffffffffffffffffffffffffff1660001b6200038a60201b60201c565b905092915050565b600080600084815260200190815260200160002060000160008373ffffffffffffffffffffffffffffffffffffffff1673ffffffffffffffffffffffffffffffffffffffff16815260200190815260200160002060009054906101000a900460ff16905092915050565b60006200039e83836200040460201b60201c565b620003f9578260000182908060018154018082558091505060019003906000526020600020016000909190919091505582600001805490508360010160008481526020019081526020016000208190555060019050620003fe565b600090505b92915050565b600080836001016000848152602001908152602001600020541415905092915050565b82805462000435906200075c565b90600052602060002090601f016020900481019282620004595760008555620004a5565b82601f106200047457805160ff1916838001178555620004a5565b82800160010185558215620004a5579182015b82811115620004a457825182559160200191906001019062000487565b5b509050620004b49190620004b8565b5090565b5b80821115620004d3576000816000905550600101620004b9565b5090565b6000604051905090565b600080fd5b600080fd5b600080fd5b600080fd5b6000601f19601f8301169050919050565b7f4e487b7100000000000000000000000000000000000000000000000000000000600052604160045260246000fd5b6200054082620004f5565b810181811067ffffffffffffffff8211171562000562576200056162000506565b5b80604052505050565b600062000577620004d7565b905062000585828262000535565b919050565b600067ffffffffffffffff821115620005a857620005a762000506565b5b620005b382620004f5565b9050602081019050919050565b60005b83811015620005e0578082015181840152602081019050620005c3565b83811115620005f0576000848401525b50505050565b60006200060d62000607846200058a565b6200056b565b9050828152602081018484840111156200062c576200062b620004f0565b5b62000639848285620005c0565b509392505050565b600082601f830112620006595762000658620004eb565b5b81516200066b848260208601620005f6565b91505092915050565b60008060006060848603121562000690576200068f620004e1565b5b600084015167ffffffffffffffff811115620006b157620006b0620004e6565b5b620006bf8682870162000641565b935050602084015167ffffffffffffffff811115620006e357620006e2620004e6565b5b620006f18682870162000641565b925050604084015167ffffffffffffffff811115620007155762000714620004e6565b5b620007238682870162000641565b9150509250925092565b7f4e487b7100000000000000000000000000000000000000000000000000000000600052602260045260246000fd5b600060028204905060018216806200077557607f821691505b602082108114156200078c576200078b6200072d565b5b50919050565b614b9e80620007a26000396000f3fe608060405234801561001057600080fd5b50600436106102065760003560e01c806370a082311161011a578063c87b56dd116100ad578063d547741f1161007c578063d547741f146105eb578063e58378bb14610607578063e63ab1e914610625578063e985e9c514610643578063f66a76371461067357610206565b8063c87b56dd1461054f578063ca15c8731461057f578063cfc86f7b146105af578063d5391393146105cd57610206565b806395d89b41116100e957806395d89b41146104db578063a217fddf146104f9578063a22cb46514610517578063b88d4fde1461053357610206565b806370a08231146104415780638456cb59146104715780639010d07c1461047b57806391d14854146104ab57610206565b80632f2ff15d1161019d57806342842e0e1161016c57806342842e0e1461038b57806342966c68146103a75780634f6ccce7146103c35780635c975abb146103f35780636352211e1461041157610206565b80632f2ff15d146103195780632f745c591461033557806336568abe146103655780633f4ba83a1461038157610206565b80631249c58b116101d95780631249c58b146102a557806318160ddd146102af57806323b872dd146102cd578063248a9ca3146102e957610206565b806301ffc9a71461020b57806306fdde031461023b578063081812fc14610259578063095ea7b314610289575b600080fd5b6102256004803603810190610220919061319d565b61068f565b60405161023291906131e5565b60405180910390f35b6102436106a1565b6040516102509190613299565b60405180910390f35b610273600480360381019061026e91906132f1565b610733565b604051610280919061335f565b60405180910390f35b6102a3600480360381019061029e91906133a6565b6107b8565b005b6102ad6108d0565b005b6102b7610979565b6040516102c491906133f5565b60405180910390f35b6102e760048036038101906102e29190613410565b610986565b005b61030360048036038101906102fe9190613499565b6109e6565b60405161031091906134d5565b60405180910390f35b610333600480360381019061032e91906134f0565b610a05565b005b61034f600480360381019061034a91906133a6565b610a2e565b60405161035c91906133f5565b60405180910390f35b61037f600480360381019061037a91906134f0565b610ad3565b005b610389610b56565b005b6103a560048036038101906103a09190613410565b610bd0565b005b6103c160048036038101906103bc91906132f1565b610bf0565b005b6103dd60048036038101906103d891906132f1565b610c4c565b6040516103ea91906133f5565b60405180910390f35b6103fb610cbd565b60405161040891906131e5565b60405180910390f35b61042b600480360381019061042691906132f1565b610cd4565b604051610438919061335f565b60405180910390f35b61045b60048036038101906104569190613530565b610d86565b60405161046891906133f5565b60405180910390f35b610479610e3e565b005b6104956004803603810190610490919061355d565b610eb8565b6040516104a2919061335f565b60405180910390f35b6104c560048036038101906104c091906134f0565b610ee7565b6040516104d291906131e5565b60405180910390f35b6104e3610f51565b6040516104f09190613299565b60405180910390f35b610501610fe3565b60405161050e91906134d5565b60405180910390f35b610531600480360381019061052c91906135c9565b610fea565b005b61054d6004803603810190610548919061373e565b611000565b005b610569600480360381019061056491906132f1565b611062565b6040516105769190613299565b60405180910390f35b61059960048036038101906105949190613499565b611109565b6040516105a691906133f5565b60405180910390f35b6105b761112d565b6040516105c49190613299565b60405180910390f35b6105d56111bb565b6040516105e291906134d5565b60405180910390f35b610605600480360381019061060091906134f0565b6111df565b005b61060f611208565b60405161061c91906134d5565b60405180910390f35b61062d61122c565b60405161063a91906134d5565b60405180910390f35b61065d600480360381019061065891906137c1565b611250565b60405161066a91906131e5565b60405180910390f35b61068d60048036038101906106889190613530565b6112e4565b005b600061069a82611491565b9050919050565b6060600280546106b090613830565b80601f01602080910402602001604051908101604052809291908181526020018280546106dc90613830565b80156107295780601f106106fe57610100808354040283529160200191610729565b820191906000526020600020905b81548152906001019060200180831161070c57829003601f168201915b5050505050905090565b600061073e8261150b565b61077d576040517f08c379a0000000000000000000000000000000000000000000000000000000008152600401610774906138d4565b60405180910390fd5b6006600083815260200190815260200160002060009054906101000a900473ffffffffffffffffffffffffffffffffffffffff169050919050565b60006107c382610cd4565b90508073ffffffffffffffffffffffffffffffffffffffff168373ffffffffffffffffffffffffffffffffffffffff161415610834576040517f08c379a000000000000000000000000000000000000000000000000000000000815260040161082b90613966565b60405180910390fd5b8073ffffffffffffffffffffffffffffffffffffffff16610853611577565b73ffffffffffffffffffffffffffffffffffffffff16148061088257506108818161087c611577565b611250565b5b6108c1576040517f08c379a00000000000000000000000000000000000000000000000000000000081526004016108b8906139f8565b60405180910390fd5b6108cb838361157f565b505050565b6109017f9f2df0fed2c77648de5860a4cc508cd0818c85b8b8a1ab4ceeef8d981c8956a66108fc611577565b610ee7565b610940576040517f08c379a000000000000000000000000000000000000000000000000000000000815260040161093790613a64565b60405180910390fd5b61094a600d611638565b61095c610957600d61164e565b61165c565b50610977610968611577565b610972600d61164e565b6117af565b565b6000600a80549050905090565b610997610991611577565b8261197d565b6109d6576040517f08c379a00000000000000000000000000000000000000000000000000000000081526004016109cd90613af6565b60405180910390fd5b6109e1838383611a5b565b505050565b6000806000838152602001908152602001600020600101549050919050565b610a0e826109e6565b610a1f81610a1a611577565b611cb7565b610a298383611d54565b505050565b6000610a3983610d86565b8210610a7a576040517f08c379a0000000000000000000000000000000000000000000000000000000008152600401610a7190613b88565b60405180910390fd5b600860008473ffffffffffffffffffffffffffffffffffffffff1673ffffffffffffffffffffffffffffffffffffffff168152602001908152602001600020600083815260200190815260200160002054905092915050565b610adb611577565b73ffffffffffffffffffffffffffffffffffffffff168173ffffffffffffffffffffffffffffffffffffffff1614610b48576040517f08c379a0000000000000000000000000000000000000000000000000000000008152600401610b3f90613c1a565b60405180910390fd5b610b528282611d88565b5050565b610b877f65d7a28e3265b37a6474929f336521b332c1681b933f6cb9f3376673440d862a610b82611577565b610ee7565b610bc6576040517f08c379a0000000000000000000000000000000000000000000000000000000008152600401610bbd90613c86565b60405180910390fd5b610bce611dbc565b565b610beb83838360405180602001604052806000815250611000565b505050565b610c01610bfb611577565b8261197d565b610c40576040517f08c379a0000000000000000000000000000000000000000000000000000000008152600401610c3790613d18565b60405180910390fd5b610c4981611e5e565b50565b6000610c56610979565b8210610c97576040517f08c379a0000000000000000000000000000000000000000000000000000000008152600401610c8e90613daa565b60405180910390fd5b600a8281548110610cab57610caa613dca565b5b90600052602060002001549050919050565b6000600c60009054906101000a900460ff16905090565b6000806004600084815260200190815260200160002060009054906101000a900473ffffffffffffffffffffffffffffffffffffffff169050600073ffffffffffffffffffffffffffffffffffffffff168173ffffffffffffffffffffffffffffffffffffffff161415610d7d576040517f08c379a0000000000000000000000000000000000000000000000000000000008152600401610d7490613e6b565b60405180910390fd5b80915050919050565b60008073ffffffffffffffffffffffffffffffffffffffff168273ffffffffffffffffffffffffffffffffffffffff161415610df7576040517f08c379a0000000000000000000000000000000000000000000000000000000008152600401610dee90613efd565b60405180910390fd5b600560008373ffffffffffffffffffffffffffffffffffffffff1673ffffffffffffffffffffffffffffffffffffffff168152602001908152602001600020549050919050565b610e6f7f65d7a28e3265b37a6474929f336521b332c1681b933f6cb9f3376673440d862a610e6a611577565b610ee7565b610eae576040517f08c379a0000000000000000000000000000000000000000000000000000000008152600401610ea590613c86565b60405180910390fd5b610eb6611f6f565b565b6000610edf826001600086815260200190815260200160002061201290919063ffffffff16565b905092915050565b600080600084815260200190815260200160002060000160008373ffffffffffffffffffffffffffffffffffffffff1673ffffffffffffffffffffffffffffffffffffffff16815260200190815260200160002060009054906101000a900460ff16905092915050565b606060038054610f6090613830565b80601f0160208091040260200160405190810160405280929190818152602001828054610f8c90613830565b8015610fd95780601f10610fae57610100808354040283529160200191610fd9565b820191906000526020600020905b815481529060010190602001808311610fbc57829003601f168201915b5050505050905090565b6000801b81565b610ffc610ff5611577565b838361202c565b5050565b61101161100b611577565b8361197d565b611050576040517f08c379a000000000000000000000000000000000000000000000000000000000815260040161104790613af6565b60405180910390fd5b61105c84848484612199565b50505050565b606061106d8261150b565b6110ac576040517f08c379a00000000000000000000000000000000000000000000000000000000081526004016110a390613f8f565b60405180910390fd5b60006110b66121f5565b905060008151116110d65760405180602001604052806000815250611101565b806110e08461220c565b6040516020016110f1929190613feb565b6040516020818303038152906040525b915050919050565b60006111266001600084815260200190815260200160002061236d565b9050919050565b600e805461113a90613830565b80601f016020809104026020016040519081016040528092919081815260200182805461116690613830565b80156111b35780601f10611188576101008083540402835291602001916111b3565b820191906000526020600020905b81548152906001019060200180831161119657829003601f168201915b505050505081565b7f9f2df0fed2c77648de5860a4cc508cd0818c85b8b8a1ab4ceeef8d981c8956a681565b6111e8826109e6565b6111f9816111f4611577565b611cb7565b6112038383611d88565b505050565b7fb19546dff01e856fb3f010c267a7b1c60363cf8a4664e21cc89c26224620214e81565b7f65d7a28e3265b37a6474929f336521b332c1681b933f6cb9f3376673440d862a81565b6000600760008473ffffffffffffffffffffffffffffffffffffffff1673ffffffffffffffffffffffffffffffffffffffff16815260200190815260200160002060008373ffffffffffffffffffffffffffffffffffffffff1673ffffffffffffffffffffffffffffffffffffffff16815260200190815260200160002060009054906101000a900460ff16905092915050565b6113157fb19546dff01e856fb3f010c267a7b1c60363cf8a4664e21cc89c26224620214e611310611577565b610ee7565b611354576040517f08c379a000000000000000000000000000000000000000000000000000000000815260040161134b9061405b565b60405180910390fd5b61137e7f65d7a28e3265b37a6474929f336521b332c1681b933f6cb9f3376673440d862a82612382565b50565b61138b8282610ee7565b61145d57600160008084815260200190815260200160002060000160008373ffffffffffffffffffffffffffffffffffffffff1673ffffffffffffffffffffffffffffffffffffffff16815260200190815260200160002060006101000a81548160ff021916908315150217905550611402611577565b73ffffffffffffffffffffffffffffffffffffffff168173ffffffffffffffffffffffffffffffffffffffff16837f2f8788117e7eff1d82e926ec794901d17c78024a50270940304540a733656f0d60405160405180910390a45b5050565b6000611489836000018373ffffffffffffffffffffffffffffffffffffffff1660001b612390565b905092915050565b60007f780e9d63000000000000000000000000000000000000000000000000000000007bffffffffffffffffffffffffffffffffffffffffffffffffffffffff1916827bffffffffffffffffffffffffffffffffffffffffffffffffffffffff19161480611504575061150382612400565b5b9050919050565b60008073ffffffffffffffffffffffffffffffffffffffff166004600084815260200190815260200160002060009054906101000a900473ffffffffffffffffffffffffffffffffffffffff1673ffffffffffffffffffffffffffffffffffffffff1614159050919050565b600033905090565b816006600083815260200190815260200160002060006101000a81548173ffffffffffffffffffffffffffffffffffffffff021916908373ffffffffffffffffffffffffffffffffffffffff160217905550808273ffffffffffffffffffffffffffffffffffffffff166115f283610cd4565b73ffffffffffffffffffffffffffffffffffffffff167f8c5be1e5ebec7d5bd14f71427d1e84f3dd0314c0f7b2291e5b200ac8c7c3b92560405160405180910390a45050565b6001816000016000828254019250508190555050565b600081600001549050919050565b606060006116698361220c565b90506000600e805461167a90613830565b80601f01602080910402602001604051908101604052809291908181526020018280546116a690613830565b80156116f35780601f106116c8576101008083540402835291602001916116f3565b820191906000526020600020905b8154815290600101906020018083116116d657829003601f168201915b5050505050905060008151141561173f576040517f08c379a0000000000000000000000000000000000000000000000000000000008152600401611736906140c7565b60405180910390fd5b6000825111611783576040517f08c379a000000000000000000000000000000000000000000000000000000000815260040161177a90614133565b60405180910390fd5b600e826040516020016117979291906141e7565b60405160208183030381529060405292505050919050565b600073ffffffffffffffffffffffffffffffffffffffff168273ffffffffffffffffffffffffffffffffffffffff16141561181f576040517f08c379a000000000000000000000000000000000000000000000000000000000815260040161181690614257565b60405180910390fd5b6118288161150b565b15611868576040517f08c379a000000000000000000000000000000000000000000000000000000000815260040161185f906142c3565b60405180910390fd5b611874600083836124e2565b6001600560008473ffffffffffffffffffffffffffffffffffffffff1673ffffffffffffffffffffffffffffffffffffffff16815260200190815260200160002060008282546118c49190614312565b92505081905550816004600083815260200190815260200160002060006101000a81548173ffffffffffffffffffffffffffffffffffffffff021916908373ffffffffffffffffffffffffffffffffffffffff160217905550808273ffffffffffffffffffffffffffffffffffffffff16600073ffffffffffffffffffffffffffffffffffffffff167fddf252ad1be2c89b69c2b068fc378daa952ba7f163c4a11628f55a4df523b3ef60405160405180910390a45050565b60006119888261150b565b6119c7576040517f08c379a00000000000000000000000000000000000000000000000000000000081526004016119be906143da565b60405180910390fd5b60006119d283610cd4565b90508073ffffffffffffffffffffffffffffffffffffffff168473ffffffffffffffffffffffffffffffffffffffff161480611a4157508373ffffffffffffffffffffffffffffffffffffffff16611a2984610733565b73ffffffffffffffffffffffffffffffffffffffff16145b80611a525750611a518185611250565b5b91505092915050565b8273ffffffffffffffffffffffffffffffffffffffff16611a7b82610cd4565b73ffffffffffffffffffffffffffffffffffffffff1614611ad1576040517f08c379a0000000000000000000000000000000000000000000000000000000008152600401611ac89061446c565b60405180910390fd5b600073ffffffffffffffffffffffffffffffffffffffff168273ffffffffffffffffffffffffffffffffffffffff161415611b41576040517f08c379a0000000000000000000000000000000000000000000000000000000008152600401611b38906144fe565b60405180910390fd5b611b4c8383836124e2565b611b5760008261157f565b6001600560008573ffffffffffffffffffffffffffffffffffffffff1673ffffffffffffffffffffffffffffffffffffffff1681526020019081526020016000206000828254611ba7919061451e565b925050819055506001600560008473ffffffffffffffffffffffffffffffffffffffff1673ffffffffffffffffffffffffffffffffffffffff1681526020019081526020016000206000828254611bfe9190614312565b92505081905550816004600083815260200190815260200160002060006101000a81548173ffffffffffffffffffffffffffffffffffffffff021916908373ffffffffffffffffffffffffffffffffffffffff160217905550808273ffffffffffffffffffffffffffffffffffffffff168473ffffffffffffffffffffffffffffffffffffffff167fddf252ad1be2c89b69c2b068fc378daa952ba7f163c4a11628f55a4df523b3ef60405160405180910390a4505050565b611cc18282610ee7565b611d5057611ce68173ffffffffffffffffffffffffffffffffffffffff1660146124f2565b611cf48360001c60206124f2565b604051602001611d059291906145ea565b6040516020818303038152906040526040517f08c379a0000000000000000000000000000000000000000000000000000000008152600401611d479190613299565b60405180910390fd5b5050565b611d5e8282611381565b611d83816001600085815260200190815260200160002061146190919063ffffffff16565b505050565b611d92828261272e565b611db7816001600085815260200190815260200160002061280f90919063ffffffff16565b505050565b611dc4610cbd565b611e03576040517f08c379a0000000000000000000000000000000000000000000000000000000008152600401611dfa90614670565b60405180910390fd5b6000600c60006101000a81548160ff0219169083151502179055507f5db9ee0a495bf2e6ff9c91a7834c1ba4fdd244a5e8aa4e537bd38aeae4b073aa611e47611577565b604051611e54919061335f565b60405180910390a1565b6000611e6982610cd4565b9050611e77816000846124e2565b611e8260008361157f565b6001600560008373ffffffffffffffffffffffffffffffffffffffff1673ffffffffffffffffffffffffffffffffffffffff1681526020019081526020016000206000828254611ed2919061451e565b925050819055506004600083815260200190815260200160002060006101000a81549073ffffffffffffffffffffffffffffffffffffffff021916905581600073ffffffffffffffffffffffffffffffffffffffff168273ffffffffffffffffffffffffffffffffffffffff167fddf252ad1be2c89b69c2b068fc378daa952ba7f163c4a11628f55a4df523b3ef60405160405180910390a45050565b611f77610cbd565b15611fb7576040517f08c379a0000000000000000000000000000000000000000000000000000000008152600401611fae906146dc565b60405180910390fd5b6001600c60006101000a81548160ff0219169083151502179055507f62e78cea01bee320cd4e420270b5ea74000d11b0c9f74754ebdbfc544b05a258611ffb611577565b604051612008919061335f565b60405180910390a1565b6000612021836000018361283f565b60001c905092915050565b8173ffffffffffffffffffffffffffffffffffffffff168373ffffffffffffffffffffffffffffffffffffffff16141561209b576040517f08c379a000000000000000000000000000000000000000000000000000000000815260040161209290614748565b60405180910390fd5b80600760008573ffffffffffffffffffffffffffffffffffffffff1673ffffffffffffffffffffffffffffffffffffffff16815260200190815260200160002060008473ffffffffffffffffffffffffffffffffffffffff1673ffffffffffffffffffffffffffffffffffffffff16815260200190815260200160002060006101000a81548160ff0219169083151502179055508173ffffffffffffffffffffffffffffffffffffffff168373ffffffffffffffffffffffffffffffffffffffff167f17307eab39ab6107e8899845ad3d59bd9653f200f220920489ca2b5937696c318360405161218c91906131e5565b60405180910390a3505050565b6121a4848484611a5b565b6121b08484848461286a565b6121ef576040517f08c379a00000000000000000000000000000000000000000000000000000000081526004016121e6906147da565b60405180910390fd5b50505050565b606060405180602001604052806000815250905090565b60606000821415612254576040518060400160405280600181526020017f30000000000000000000000000000000000000000000000000000000000000008152509050612368565b600082905060005b6000821461228657808061226f906147fa565b915050600a8261227f9190614872565b915061225c565b60008167ffffffffffffffff8111156122a2576122a1613613565b5b6040519080825280601f01601f1916602001820160405280156122d45781602001600182028036833780820191505090505b5090505b60008514612361576001826122ed919061451e565b9150600a856122fc91906148a3565b60306123089190614312565b60f81b81838151811061231e5761231d613dca565b5b60200101907effffffffffffffffffffffffffffffffffffffffffffffffffffffffffffff1916908160001a905350600a8561235a9190614872565b94506122d8565b8093505050505b919050565b600061237b82600001612a01565b9050919050565b61238c8282611d54565b5050565b600061239c8383612a12565b6123f55782600001829080600181540180825580915050600190039060005260206000200160009091909190915055826000018054905083600101600084815260200190815260200160002081905550600190506123fa565b600090505b92915050565b60007f80ac58cd000000000000000000000000000000000000000000000000000000007bffffffffffffffffffffffffffffffffffffffffffffffffffffffff1916827bffffffffffffffffffffffffffffffffffffffffffffffffffffffff191614806124cb57507f5b5e139f000000000000000000000000000000000000000000000000000000007bffffffffffffffffffffffffffffffffffffffffffffffffffffffff1916827bffffffffffffffffffffffffffffffffffffffffffffffffffffffff1916145b806124db57506124da82612a35565b5b9050919050565b6124ed838383612aaf565b505050565b60606000600283600261250591906148d4565b61250f9190614312565b67ffffffffffffffff81111561252857612527613613565b5b6040519080825280601f01601f19166020018201604052801561255a5781602001600182028036833780820191505090505b5090507f30000000000000000000000000000000000000000000000000000000000000008160008151811061259257612591613dca565b5b60200101907effffffffffffffffffffffffffffffffffffffffffffffffffffffffffffff1916908160001a9053507f7800000000000000000000000000000000000000000000000000000000000000816001815181106125f6576125f5613dca565b5b60200101907effffffffffffffffffffffffffffffffffffffffffffffffffffffffffffff1916908160001a9053506000600184600261263691906148d4565b6126409190614312565b90505b60018111156126e0577f3031323334353637383961626364656600000000000000000000000000000000600f86166010811061268257612681613dca565b5b1a60f81b82828151811061269957612698613dca565b5b60200101907effffffffffffffffffffffffffffffffffffffffffffffffffffffffffffff1916908160001a905350600485901c9450806126d99061492e565b9050612643565b5060008414612724576040517f08c379a000000000000000000000000000000000000000000000000000000000815260040161271b906149a4565b60405180910390fd5b8091505092915050565b6127388282610ee7565b1561280b57600080600084815260200190815260200160002060000160008373ffffffffffffffffffffffffffffffffffffffff1673ffffffffffffffffffffffffffffffffffffffff16815260200190815260200160002060006101000a81548160ff0219169083151502179055506127b0611577565b73ffffffffffffffffffffffffffffffffffffffff168173ffffffffffffffffffffffffffffffffffffffff16837ff6391f5c32d9c69d2a47ea670b442974b53935d1edc7fd64eb21e047a839171b60405160405180910390a45b5050565b6000612837836000018373ffffffffffffffffffffffffffffffffffffffff1660001b612b07565b905092915050565b600082600001828154811061285757612856613dca565b5b9060005260206000200154905092915050565b600061288b8473ffffffffffffffffffffffffffffffffffffffff16612c1b565b156129f4578373ffffffffffffffffffffffffffffffffffffffff1663150b7a026128b4611577565b8786866040518563ffffffff1660e01b81526004016128d69493929190614a19565b602060405180830381600087803b1580156128f057600080fd5b505af192505050801561292157506040513d601f19601f8201168201806040525081019061291e9190614a7a565b60015b6129a4573d8060008114612951576040519150601f19603f3d011682016040523d82523d6000602084013e612956565b606091505b5060008151141561299c576040517f08c379a0000000000000000000000000000000000000000000000000000000008152600401612993906147da565b60405180910390fd5b805181602001fd5b63150b7a0260e01b7bffffffffffffffffffffffffffffffffffffffffffffffffffffffff1916817bffffffffffffffffffffffffffffffffffffffffffffffffffffffff1916149150506129f9565b600190505b949350505050565b600081600001805490509050919050565b600080836001016000848152602001908152602001600020541415905092915050565b60007f5a05180f000000000000000000000000000000000000000000000000000000007bffffffffffffffffffffffffffffffffffffffffffffffffffffffff1916827bffffffffffffffffffffffffffffffffffffffffffffffffffffffff19161480612aa85750612aa782612c2e565b5b9050919050565b612aba838383612ca8565b612ac2610cbd565b15612b02576040517f08c379a0000000000000000000000000000000000000000000000000000000008152600401612af990614b19565b60405180910390fd5b505050565b60008083600101600084815260200190815260200160002054905060008114612c0f576000600182612b39919061451e565b9050600060018660000180549050612b51919061451e565b9050818114612bc0576000866000018281548110612b7257612b71613dca565b5b9060005260206000200154905080876000018481548110612b9657612b95613dca565b5b90600052602060002001819055508387600101600083815260200190815260200160002081905550505b85600001805480612bd457612bd3614b39565b5b600190038181906000526020600020016000905590558560010160008681526020019081526020016000206000905560019350505050612c15565b60009150505b92915050565b600080823b905060008111915050919050565b60007f7965db0b000000000000000000000000000000000000000000000000000000007bffffffffffffffffffffffffffffffffffffffffffffffffffffffff1916827bffffffffffffffffffffffffffffffffffffffffffffffffffffffff19161480612ca15750612ca082612dbc565b5b9050919050565b612cb3838383612e26565b600073ffffffffffffffffffffffffffffffffffffffff168373ffffffffffffffffffffffffffffffffffffffff161415612cf657612cf181612e2b565b612d35565b8173ffffffffffffffffffffffffffffffffffffffff168373ffffffffffffffffffffffffffffffffffffffff1614612d3457612d338382612e74565b5b5b600073ffffffffffffffffffffffffffffffffffffffff168273ffffffffffffffffffffffffffffffffffffffff161415612d7857612d7381612fe1565b612db7565b8273ffffffffffffffffffffffffffffffffffffffff168273ffffffffffffffffffffffffffffffffffffffff1614612db657612db582826130b2565b5b5b505050565b60007f01ffc9a7000000000000000000000000000000000000000000000000000000007bffffffffffffffffffffffffffffffffffffffffffffffffffffffff1916827bffffffffffffffffffffffffffffffffffffffffffffffffffffffff1916149050919050565b505050565b600a80549050600b600083815260200190815260200160002081905550600a81908060018154018082558091505060019003906000526020600020016000909190919091505550565b60006001612e8184610d86565b612e8b919061451e565b9050600060096000848152602001908152602001600020549050818114612f70576000600860008673ffffffffffffffffffffffffffffffffffffffff1673ffffffffffffffffffffffffffffffffffffffff168152602001908152602001600020600084815260200190815260200160002054905080600860008773ffffffffffffffffffffffffffffffffffffffff1673ffffffffffffffffffffffffffffffffffffffff168152602001908152602001600020600084815260200190815260200160002081905550816009600083815260200190815260200160002081905550505b6009600084815260200190815260200160002060009055600860008573ffffffffffffffffffffffffffffffffffffffff1673ffffffffffffffffffffffffffffffffffffffff16815260200190815260200160002060008381526020019081526020016000206000905550505050565b60006001600a80549050612ff5919061451e565b90506000600b60008481526020019081526020016000205490506000600a838154811061302557613024613dca565b5b9060005260206000200154905080600a838154811061304757613046613dca565b5b906000526020600020018190555081600b600083815260200190815260200160002081905550600b600085815260200190815260200160002060009055600a80548061309657613095614b39565b5b6001900381819060005260206000200160009055905550505050565b60006130bd83610d86565b905081600860008573ffffffffffffffffffffffffffffffffffffffff1673ffffffffffffffffffffffffffffffffffffffff168152602001908152602001600020600083815260200190815260200160002081905550806009600084815260200190815260200160002081905550505050565b6000604051905090565b600080fd5b600080fd5b60007fffffffff0000000000000000000000000000000000000000000000000000000082169050919050565b61317a81613145565b811461318557600080fd5b50565b60008135905061319781613171565b92915050565b6000602082840312156131b3576131b261313b565b5b60006131c184828501613188565b91505092915050565b60008115159050919050565b6131df816131ca565b82525050565b60006020820190506131fa60008301846131d6565b92915050565b600081519050919050565b600082825260208201905092915050565b60005b8381101561323a57808201518184015260208101905061321f565b83811115613249576000848401525b50505050565b6000601f19601f8301169050919050565b600061326b82613200565b613275818561320b565b935061328581856020860161321c565b61328e8161324f565b840191505092915050565b600060208201905081810360008301526132b38184613260565b905092915050565b6000819050919050565b6132ce816132bb565b81146132d957600080fd5b50565b6000813590506132eb816132c5565b92915050565b6000602082840312156133075761330661313b565b5b6000613315848285016132dc565b91505092915050565b600073ffffffffffffffffffffffffffffffffffffffff82169050919050565b60006133498261331e565b9050919050565b6133598161333e565b82525050565b60006020820190506133746000830184613350565b92915050565b6133838161333e565b811461338e57600080fd5b50565b6000813590506133a08161337a565b92915050565b600080604083850312156133bd576133bc61313b565b5b60006133cb85828601613391565b92505060206133dc858286016132dc565b9150509250929050565b6133ef816132bb565b82525050565b600060208201905061340a60008301846133e6565b92915050565b6000806000606084860312156134295761342861313b565b5b600061343786828701613391565b935050602061344886828701613391565b9250506040613459868287016132dc565b9150509250925092565b6000819050919050565b61347681613463565b811461348157600080fd5b50565b6000813590506134938161346d565b92915050565b6000602082840312156134af576134ae61313b565b5b60006134bd84828501613484565b91505092915050565b6134cf81613463565b82525050565b60006020820190506134ea60008301846134c6565b92915050565b600080604083850312156135075761350661313b565b5b600061351585828601613484565b925050602061352685828601613391565b9150509250929050565b6000602082840312156135465761354561313b565b5b600061355484828501613391565b91505092915050565b600080604083850312156135745761357361313b565b5b600061358285828601613484565b9250506020613593858286016132dc565b9150509250929050565b6135a6816131ca565b81146135b157600080fd5b50565b6000813590506135c38161359d565b92915050565b600080604083850312156135e0576135df61313b565b5b60006135ee85828601613391565b92505060206135ff858286016135b4565b9150509250929050565b600080fd5b600080fd5b7f4e487b7100000000000000000000000000000000000000000000000000000000600052604160045260246000fd5b61364b8261324f565b810181811067ffffffffffffffff8211171561366a57613669613613565b5b80604052505050565b600061367d613131565b90506136898282613642565b919050565b600067ffffffffffffffff8211156136a9576136a8613613565b5b6136b28261324f565b9050602081019050919050565b82818337600083830152505050565b60006136e16136dc8461368e565b613673565b9050828152602081018484840111156136fd576136fc61360e565b5b6137088482856136bf565b509392505050565b600082601f83011261372557613724613609565b5b81356137358482602086016136ce565b91505092915050565b600080600080608085870312156137585761375761313b565b5b600061376687828801613391565b945050602061377787828801613391565b9350506040613788878288016132dc565b925050606085013567ffffffffffffffff8111156137a9576137a8613140565b5b6137b587828801613710565b91505092959194509250565b600080604083850312156137d8576137d761313b565b5b60006137e685828601613391565b92505060206137f785828601613391565b9150509250929050565b7f4e487b7100000000000000000000000000000000000000000000000000000000600052602260045260246000fd5b6000600282049050600182168061384857607f821691505b6020821081141561385c5761385b613801565b5b50919050565b7f4552433732313a20617070726f76656420717565727920666f72206e6f6e657860008201527f697374656e7420746f6b656e0000000000000000000000000000000000000000602082015250565b60006138be602c8361320b565b91506138c982613862565b604082019050919050565b600060208201905081810360008301526138ed816138b1565b9050919050565b7f4552433732313a20617070726f76616c20746f2063757272656e74206f776e6560008201527f7200000000000000000000000000000000000000000000000000000000000000602082015250565b600061395060218361320b565b915061395b826138f4565b604082019050919050565b6000602082019050818103600083015261397f81613943565b9050919050565b7f4552433732313a20617070726f76652063616c6c6572206973206e6f74206f7760008201527f6e6572206e6f7220617070726f76656420666f7220616c6c0000000000000000602082015250565b60006139e260388361320b565b91506139ed82613986565b604082019050919050565b60006020820190508181036000830152613a11816139d5565b9050919050565b7f54657272616e3732313a206d7573742068617665206d696e74657220726f6c65600082015250565b6000613a4e60208361320b565b9150613a5982613a18565b602082019050919050565b60006020820190508181036000830152613a7d81613a41565b9050919050565b7f4552433732313a207472616e736665722063616c6c6572206973206e6f74206f60008201527f776e6572206e6f7220617070726f766564000000000000000000000000000000602082015250565b6000613ae060318361320b565b9150613aeb82613a84565b604082019050919050565b60006020820190508181036000830152613b0f81613ad3565b9050919050565b7f455243373231456e756d657261626c653a206f776e657220696e646578206f7560008201527f74206f6620626f756e6473000000000000000000000000000000000000000000602082015250565b6000613b72602b8361320b565b9150613b7d82613b16565b604082019050919050565b60006020820190508181036000830152613ba181613b65565b9050919050565b7f416363657373436f6e74726f6c3a2063616e206f6e6c792072656e6f756e636560008201527f20726f6c657320666f722073656c660000000000000000000000000000000000602082015250565b6000613c04602f8361320b565b9150613c0f82613ba8565b604082019050919050565b60006020820190508181036000830152613c3381613bf7565b9050919050565b7f54657272616e3732313a206d75737420686176652070617573657220726f6c65600082015250565b6000613c7060208361320b565b9150613c7b82613c3a565b602082019050919050565b60006020820190508181036000830152613c9f81613c63565b9050919050565b7f4552433732314275726e61626c653a2063616c6c6572206973206e6f74206f7760008201527f6e6572206e6f7220617070726f76656400000000000000000000000000000000602082015250565b6000613d0260308361320b565b9150613d0d82613ca6565b604082019050919050565b60006020820190508181036000830152613d3181613cf5565b9050919050565b7f455243373231456e756d657261626c653a20676c6f62616c20696e646578206f60008201527f7574206f6620626f756e64730000000000000000000000000000000000000000602082015250565b6000613d94602c8361320b565b9150613d9f82613d38565b604082019050919050565b60006020820190508181036000830152613dc381613d87565b9050919050565b7f4e487b7100000000000000000000000000000000000000000000000000000000600052603260045260246000fd5b7f4552433732313a206f776e657220717565727920666f72206e6f6e657869737460008201527f656e7420746f6b656e0000000000000000000000000000000000000000000000602082015250565b6000613e5560298361320b565b9150613e6082613df9565b604082019050919050565b60006020820190508181036000830152613e8481613e48565b9050919050565b7f4552433732313a2062616c616e636520717565727920666f7220746865207a6560008201527f726f206164647265737300000000000000000000000000000000000000000000602082015250565b6000613ee7602a8361320b565b9150613ef282613e8b565b604082019050919050565b60006020820190508181036000830152613f1681613eda565b9050919050565b7f4552433732314d657461646174613a2055524920717565727920666f72206e6f60008201527f6e6578697374656e7420746f6b656e0000000000000000000000000000000000602082015250565b6000613f79602f8361320b565b9150613f8482613f1d565b604082019050919050565b60006020820190508181036000830152613fa881613f6c565b9050919050565b600081905092915050565b6000613fc582613200565b613fcf8185613faf565b9350613fdf81856020860161321c565b80840191505092915050565b6000613ff78285613fba565b91506140038284613fba565b91508190509392505050565b7f54657272616e3732313a206d7573742068617665206f776e657220726f6c6500600082015250565b6000614045601f8361320b565b91506140508261400f565b602082019050919050565b6000602082019050818103600083015261407481614038565b9050919050565b7f4552433732313a206e6f20626173652055524920736574000000000000000000600082015250565b60006140b160178361320b565b91506140bc8261407b565b602082019050919050565b600060208201905081810360008301526140e0816140a4565b9050919050565b7f4552433732313a206e6f20746f6b656e20494400000000000000000000000000600082015250565b600061411d60138361320b565b9150614128826140e7565b602082019050919050565b6000602082019050818103600083015261414c81614110565b9050919050565b60008190508160005260206000209050919050565b6000815461417581613830565b61417f8186613faf565b9450600182166000811461419a57600181146141ab576141de565b60ff198316865281860193506141de565b6141b485614153565b60005b838110156141d6578154818901526001820191506020810190506141b7565b838801955050505b50505092915050565b60006141f38285614168565b91506141ff8284613fba565b91508190509392505050565b7f4552433732313a206d696e7420746f20746865207a65726f2061646472657373600082015250565b600061424160208361320b565b915061424c8261420b565b602082019050919050565b6000602082019050818103600083015261427081614234565b9050919050565b7f4552433732313a20746f6b656e20616c7265616479206d696e74656400000000600082015250565b60006142ad601c8361320b565b91506142b882614277565b602082019050919050565b600060208201905081810360008301526142dc816142a0565b9050919050565b7f4e487b7100000000000000000000000000000000000000000000000000000000600052601160045260246000fd5b600061431d826132bb565b9150614328836132bb565b9250827fffffffffffffffffffffffffffffffffffffffffffffffffffffffffffffffff0382111561435d5761435c6142e3565b5b828201905092915050565b7f4552433732313a206f70657261746f7220717565727920666f72206e6f6e657860008201527f697374656e7420746f6b656e0000000000000000000000000000000000000000602082015250565b60006143c4602c8361320b565b91506143cf82614368565b604082019050919050565b600060208201905081810360008301526143f3816143b7565b9050919050565b7f4552433732313a207472616e73666572206f6620746f6b656e2074686174206960008201527f73206e6f74206f776e0000000000000000000000000000000000000000000000602082015250565b600061445660298361320b565b9150614461826143fa565b604082019050919050565b6000602082019050818103600083015261448581614449565b9050919050565b7f4552433732313a207472616e7366657220746f20746865207a65726f2061646460008201527f7265737300000000000000000000000000000000000000000000000000000000602082015250565b60006144e860248361320b565b91506144f38261448c565b604082019050919050565b60006020820190508181036000830152614517816144db565b9050919050565b6000614529826132bb565b9150614534836132bb565b925082821015614547576145466142e3565b5b828203905092915050565b7f416363657373436f6e74726f6c3a206163636f756e7420000000000000000000600082015250565b6000614588601783613faf565b915061459382614552565b601782019050919050565b7f206973206d697373696e6720726f6c6520000000000000000000000000000000600082015250565b60006145d4601183613faf565b91506145df8261459e565b601182019050919050565b60006145f58261457b565b91506146018285613fba565b915061460c826145c7565b91506146188284613fba565b91508190509392505050565b7f5061757361626c653a206e6f7420706175736564000000000000000000000000600082015250565b600061465a60148361320b565b915061466582614624565b602082019050919050565b600060208201905081810360008301526146898161464d565b9050919050565b7f5061757361626c653a2070617573656400000000000000000000000000000000600082015250565b60006146c660108361320b565b91506146d182614690565b602082019050919050565b600060208201905081810360008301526146f5816146b9565b9050919050565b7f4552433732313a20617070726f766520746f2063616c6c657200000000000000600082015250565b600061473260198361320b565b915061473d826146fc565b602082019050919050565b6000602082019050818103600083015261476181614725565b9050919050565b7f4552433732313a207472616e7366657220746f206e6f6e20455243373231526560008201527f63656976657220696d706c656d656e7465720000000000000000000000000000602082015250565b60006147c460328361320b565b91506147cf82614768565b604082019050919050565b600060208201905081810360008301526147f3816147b7565b9050919050565b6000614805826132bb565b91507fffffffffffffffffffffffffffffffffffffffffffffffffffffffffffffffff821415614838576148376142e3565b5b600182019050919050565b7f4e487b7100000000000000000000000000000000000000000000000000000000600052601260045260246000fd5b600061487d826132bb565b9150614888836132bb565b92508261489857614897614843565b5b828204905092915050565b60006148ae826132bb565b91506148b9836132bb565b9250826148c9576148c8614843565b5b828206905092915050565b60006148df826132bb565b91506148ea836132bb565b9250817fffffffffffffffffffffffffffffffffffffffffffffffffffffffffffffffff0483118215151615614923576149226142e3565b5b828202905092915050565b6000614939826132bb565b9150600082141561494d5761494c6142e3565b5b600182039050919050565b7f537472696e67733a20686578206c656e67746820696e73756666696369656e74600082015250565b600061498e60208361320b565b915061499982614958565b602082019050919050565b600060208201905081810360008301526149bd81614981565b9050919050565b600081519050919050565b600082825260208201905092915050565b60006149eb826149c4565b6149f581856149cf565b9350614a0581856020860161321c565b614a0e8161324f565b840191505092915050565b6000608082019050614a2e6000830187613350565b614a3b6020830186613350565b614a4860408301856133e6565b8181036060830152614a5a81846149e0565b905095945050505050565b600081519050614a7481613171565b92915050565b600060208284031215614a9057614a8f61313b565b5b6000614a9e84828501614a65565b91505092915050565b7f4552433732315061757361626c653a20746f6b656e207472616e73666572207760008201527f68696c6520706175736564000000000000000000000000000000000000000000602082015250565b6000614b03602b8361320b565b9150614b0e82614aa7565b604082019050919050565b60006020820190508181036000830152614b3281614af6565b9050919050565b7f4e487b7100000000000000000000000000000000000000000000000000000000600052603160045260246000fdfea26469706673582212209b3c3668c1a11b38158d98643e24ece3b27427688a9a7bfb9b10d88d4a486a7764736f6c63430008090033",
  "immutableReferences": {},
  "source": "// SPDX-License-Identifier: MIT\n\npragma solidity ^0.8.4;\n\nimport \"@openzeppelin/contracts/token/ERC721/ERC721.sol\";\nimport \"@openzeppelin/contracts/token/ERC721/extensions/ERC721Enumerable.sol\";\nimport \"@openzeppelin/contracts/token/ERC721/extensions/ERC721Burnable.sol\";\nimport \"@openzeppelin/contracts/token/ERC721/extensions/ERC721Pausable.sol\";\n// import strings\nimport \"@openzeppelin/contracts/utils/Strings.sol\";\nimport \"@openzeppelin/contracts/access/AccessControlEnumerable.sol\";\nimport \"@openzeppelin/contracts/utils/Counters.sol\";\n\n\n/**\n * @dev {ERC721} token, including:\n *\n *  - ability for holders to burn (destroy) their tokens\n *  - a minter role that allows for token minting (creation)\n *  - a pauser role that allows to stop all token transfers\n *  - token ID and URI autogeneration\n *\n * This contract uses {AccessControl} to lock permissioned functions using the\n * different roles - head to its documentation for details.\n *\n * The account that deploys the contract will be granted the minter and pauser\n * roles, as well as the default admin role, which will let it grant both minter\n * and pauser roles to other accounts.\n */\ncontract Terran721 is\n    AccessControlEnumerable,\n    ERC721Enumerable,\n    ERC721Burnable,\n    ERC721Pausable\n{\n    using Counters for Counters.Counter;\n// variables\n    bytes32 public constant MINTER_ROLE = keccak256(\"MINTER_ROLE\");\n    bytes32 public constant PAUSER_ROLE = keccak256(\"PAUSER_ROLE\");\n    bytes32 public constant OWNER_ROLE = keccak256(\"OWNER_ROLE\");\n\n    Counters.Counter private _tokenIdTracker;\n    string public _baseTokenURI;\n// mapping\n    mapping(uint256 => string) private _tokenURIs;\n\n// modifiers\n    modifier onlyOwner() {\n        require(\n            hasRole(OWNER_ROLE, _msgSender()),\n            \"Terran721: must have owner role\"\n        );\n        _;\n    }\n\n    modifier onlyMinter() {\n        require(\n            hasRole(MINTER_ROLE, _msgSender()),\n            \"Terran721: must have minter role\"\n        );\n        _;\n    }\n\n    modifier onlyPauser() {\n        require(\n            hasRole(PAUSER_ROLE, _msgSender()),\n            \"Terran721: must have pauser role\"\n        );\n        _;\n    }\n// constructor\n    /**\n     * @dev Grants `DEFAULT_ADMIN_ROLE`, `MINTER_ROLE` and `PAUSER_ROLE` to the\n     * account that deploys the contract.\n     *\n     * Token URIs will be autogenerated based on `baseURI` and their token IDs.\n     * See {ERC721-tokenURI}.\n     */\n    constructor(string memory name, string memory symbol, string memory baseTokenURI) ERC721(name, symbol) {\n        _baseTokenURI = baseTokenURI;\n        // set first token ID to 1\n        _tokenIdTracker;\n        _setupRole(DEFAULT_ADMIN_ROLE, _msgSender());\n        _setupRole(OWNER_ROLE, _msgSender());\n        _setupRole(MINTER_ROLE, _msgSender());\n        _setupRole(PAUSER_ROLE, _msgSender());\n    }\n// functions\n    /**\n     * @dev Creates a new token for `to`. Its token ID will be automatically\n     * assigned (and available on the emitted {IERC721-Transfer} event)\n     *\n     * See {ERC721-_mint}.\n     *\n     * Requirements:\n     * - the sender must have the `MINTER_ROLE`\n     * - the sender must provide a valid token URI for the next token ID\n     * - TODO auto generate token URI from the id and the base URI\n     */\n    function mint() public virtual onlyMinter {\n         _tokenIdTracker.increment();\n        // auto generate token URI from the id and the base URI\n        addURI(_tokenIdTracker.current());\n        _mint(_msgSender(), _tokenIdTracker.current());\n    }\n\n    /**\n     * @dev Pauses all token transfers.\n     *\n     * See {ERC721Pausable} and {Pausable-_pause}.\n     *\n     * Requirements:\n     *\n     * - the caller must have the `PAUSER_ROLE`.\n     */\n    function pause() public virtual onlyPauser {\n        _pause();\n    }\n\n    /**\n     * @dev Unpauses all token transfers.\n     *\n     * See {ERC721Pausable} and {Pausable-_unpause}.\n     *\n     * Requirements:\n     *\n     * - the caller must have the `PAUSER_ROLE`.\n     */\n    function unpause() public virtual onlyPauser {\n        _unpause();\n    }\n\n    function _beforeTokenTransfer(\n        address from,\n        address to,\n        uint256 tokenId\n    ) internal virtual override(ERC721, ERC721Enumerable, ERC721Pausable) {\n        super._beforeTokenTransfer(from, to, tokenId);\n    }\n\n    /**\n     * @dev See {IERC165-supportsInterface}.\n     */\n    function supportsInterface(bytes4 interfaceId)\n        public\n        view\n        virtual\n        override(AccessControlEnumerable, ERC721, ERC721Enumerable)\n        returns (bool)\n    {\n        return super.supportsInterface(interfaceId);\n    }\n\n    /**\n     * @dev See {ERC721uriStorage-TokenURI}.\n     * overrides tokenURI functions\n     */\n    function addURI(uint256 tokenId) internal view returns (string memory) {\n        string memory _tokenURI = Strings.toString(tokenId);\n        bytes memory base = bytes(_baseTokenURI);\n        // If there is no base URI, return.\n        require(base.length != 0, \"ERC721: no base URI set\");\n        // If both are set, concatenate the baseURI and tokenURI (via abi.encodePacked).\n        require(bytes(_tokenURI).length > 0, \"ERC721: no token ID\");\n        return string(abi.encodePacked(_baseTokenURI, _tokenURI));\n    }\n\n    /**\n     * @dev give pause permission to the dao account\n     * \n     */\n    function setPausePermission(address _dao) public onlyOwner {\n        _setupRole(PAUSER_ROLE, _dao);  // set pauser role to the dao account\n    }\n}\n",
  "sourcePath": "/home/phoenix/Works/tacvue-nft/contracts/Terran721.sol",
  "compiler": {
    "name": "solc",
    "version": "0.8.9+commit.e5eed63a.Emscripten.clang"
  },
  "schemaVersion": "3.4.3",
  "updatedAt": "2021-12-05T16:46:49.537Z",
  "networkType": "ethereum",
  "devdoc": {
    "details": "{ERC721} token, including:  - ability for holders to burn (destroy) their tokens  - a minter role that allows for token minting (creation)  - a pauser role that allows to stop all token transfers  - token ID and URI autogeneration This contract uses {AccessControl} to lock permissioned functions using the different roles - head to its documentation for details. The account that deploys the contract will be granted the minter and pauser roles, as well as the default admin role, which will let it grant both minter and pauser roles to other accounts.",
    "kind": "dev",
    "methods": {
      "approve(address,uint256)": {
        "details": "See {IERC721-approve}."
      },
      "balanceOf(address)": {
        "details": "See {IERC721-balanceOf}."
      },
      "burn(uint256)": {
        "details": "Burns `tokenId`. See {ERC721-_burn}. Requirements: - The caller must own `tokenId` or be an approved operator."
      },
      "constructor": {
        "details": "Grants `DEFAULT_ADMIN_ROLE`, `MINTER_ROLE` and `PAUSER_ROLE` to the account that deploys the contract. Token URIs will be autogenerated based on `baseURI` and their token IDs. See {ERC721-tokenURI}."
      },
      "getApproved(uint256)": {
        "details": "See {IERC721-getApproved}."
      },
      "getRoleAdmin(bytes32)": {
        "details": "Returns the admin role that controls `role`. See {grantRole} and {revokeRole}. To change a role's admin, use {_setRoleAdmin}."
      },
      "getRoleMember(bytes32,uint256)": {
        "details": "Returns one of the accounts that have `role`. `index` must be a value between 0 and {getRoleMemberCount}, non-inclusive. Role bearers are not sorted in any particular way, and their ordering may change at any point. WARNING: When using {getRoleMember} and {getRoleMemberCount}, make sure you perform all queries on the same block. See the following https://forum.openzeppelin.com/t/iterating-over-elements-on-enumerableset-in-openzeppelin-contracts/2296[forum post] for more information."
      },
      "getRoleMemberCount(bytes32)": {
        "details": "Returns the number of accounts that have `role`. Can be used together with {getRoleMember} to enumerate all bearers of a role."
      },
      "grantRole(bytes32,address)": {
        "details": "Grants `role` to `account`. If `account` had not been already granted `role`, emits a {RoleGranted} event. Requirements: - the caller must have ``role``'s admin role."
      },
      "hasRole(bytes32,address)": {
        "details": "Returns `true` if `account` has been granted `role`."
      },
      "isApprovedForAll(address,address)": {
        "details": "See {IERC721-isApprovedForAll}."
      },
      "mint()": {
        "details": "Creates a new token for `to`. Its token ID will be automatically assigned (and available on the emitted {IERC721-Transfer} event) See {ERC721-_mint}. Requirements: - the sender must have the `MINTER_ROLE` - the sender must provide a valid token URI for the next token ID - TODO auto generate token URI from the id and the base URI"
      },
      "name()": {
        "details": "See {IERC721Metadata-name}."
      },
      "ownerOf(uint256)": {
        "details": "See {IERC721-ownerOf}."
      },
      "pause()": {
        "details": "Pauses all token transfers. See {ERC721Pausable} and {Pausable-_pause}. Requirements: - the caller must have the `PAUSER_ROLE`."
      },
      "paused()": {
        "details": "Returns true if the contract is paused, and false otherwise."
      },
      "renounceRole(bytes32,address)": {
        "details": "Revokes `role` from the calling account. Roles are often managed via {grantRole} and {revokeRole}: this function's purpose is to provide a mechanism for accounts to lose their privileges if they are compromised (such as when a trusted device is misplaced). If the calling account had been revoked `role`, emits a {RoleRevoked} event. Requirements: - the caller must be `account`."
      },
      "revokeRole(bytes32,address)": {
        "details": "Revokes `role` from `account`. If `account` had been granted `role`, emits a {RoleRevoked} event. Requirements: - the caller must have ``role``'s admin role."
      },
      "safeTransferFrom(address,address,uint256)": {
        "details": "See {IERC721-safeTransferFrom}."
      },
      "safeTransferFrom(address,address,uint256,bytes)": {
        "details": "See {IERC721-safeTransferFrom}."
      },
      "setApprovalForAll(address,bool)": {
        "details": "See {IERC721-setApprovalForAll}."
      },
      "setPausePermission(address)": {
        "details": "give pause permission to the dao account "
      },
      "supportsInterface(bytes4)": {
        "details": "See {IERC165-supportsInterface}."
      },
      "symbol()": {
        "details": "See {IERC721Metadata-symbol}."
      },
      "tokenByIndex(uint256)": {
        "details": "See {IERC721Enumerable-tokenByIndex}."
      },
      "tokenOfOwnerByIndex(address,uint256)": {
        "details": "See {IERC721Enumerable-tokenOfOwnerByIndex}."
      },
      "tokenURI(uint256)": {
        "details": "See {IERC721Metadata-tokenURI}."
      },
      "totalSupply()": {
        "details": "See {IERC721Enumerable-totalSupply}."
      },
      "transferFrom(address,address,uint256)": {
        "details": "See {IERC721-transferFrom}."
      },
      "unpause()": {
        "details": "Unpauses all token transfers. See {ERC721Pausable} and {Pausable-_unpause}. Requirements: - the caller must have the `PAUSER_ROLE`."
      }
    },
    "version": 1
  },
  "userdoc": {
    "kind": "user",
    "methods": {},
    "version": 1
  }
}